:100000000C942A000C9447000C9447000C94470071
:100010000C9447000C9447000C9447000C94470044
:100020000C9447000C9447000C9447000C94470034
:100030000C9447000C9447000C9447000C94470024
:100040000C9447000C9447000C9447000C94470014
:100050000C94470011241FBECFE5D8E0DEBFCDBF12
:1000600015E0A0E6B0E0EEE7FFE202C005900D92D9
:10007000A233B107D9F715E0A2E3B5E001C01D92A4
:10008000A73EB107E1F70E9481150C94BD170C94AF
:100090000000A0E0B0E0EFE4F0E00C944117DC01D8
:1000A0002B01FA019C91923008F439C1EB0188814F
:1000B000823008F433C1943069F4843009F02FC1E0
:1000C00011969C9111978981981709F428C1ADE187
:1000D000B4E025C1843009F421C18230A9F4923002
:1000E00009F01DC19A01AD0188E0EA010990AE0155
:1000F000E90109929E018150C1F7E20189811196BF
:100100009C918923818308C1923009F407C112961A
:100110002D903C901397EB018A819B811496AD90B2
:10012000BD90CD90DC901797EC80FD800E811F81F3
:100130009101281B390BB90137FF04C066277727C7
:10014000621B730B603271050CF061C0121613064E
:100150006CF537014801062E04C096948794779475
:1001600067940A94D2F721E030E040E050E004C008
:10017000220F331F441F551F6A95D2F7215030407C
:10018000404050402E213F2140235123211531056D
:100190004105510521F021E030E040E050E07901D7
:1001A0008A01E628F728082919293CC0232BD1F118
:1001B000260E371E35014601062E04C096948794FC
:1001C000779467940A94D2F721E030E040E050E061
:1001D00004C0220F331F441F551F6A95D2F72150C8
:1001E0003040404050402A213B214C215D212115C7
:1001F00031054105510521F021E030E040E050E0BB
:1002000059016A01A628B728C828D9280BC0821529
:1002100093052CF01C01AA24BB24650103C0EE2425
:10022000FF24870111969C91D20111968C91981709
:1002300009F445C0992339F0A80197012A193B090F
:100240004C095D0906C0A60195012E193F09400B16
:10025000510B57FD08C011823382228224833583DB
:10026000468357831DC081E08183338222828827A1
:100270009927DC01821B930BA40BB50B8483958318
:10028000A683B7830DC0220F331F441F551F24833D
:100290003583468357838281938101979383828339
:1002A0002481358146815781DA01C9010197A1096D
:1002B000B1098F5F9F4FAF4FBF4328F30BC09183AE
:1002C00033822282EA0CFB1C0C1D1D1DE482F58288
:1002D0000683178383E0808324813581468157819B
:1002E00057FF1AC0C901AA2797FDA095BA2F8170A0
:1002F0009070A070B0705695479537952795822BD2
:10030000932BA42BB52B84839583A683B7838281FB
:100310009381019693838283DF0101C0D201CD01D5
:10032000CDB7DEB7E2E10C945D17A0E2B0E0EBE9F7
:10033000F1E00C944D1769837A838B839C832D8322
:100340003E834F835887E9E0EE2EF12CEC0EFD1E24
:10035000CE010196B7010E9448068E010F5E1F4F25
:10036000CE010596B8010E9448068A8991E0892746
:100370008A8BC701B801AE01475E5F4F0E944900FA
:100380000E947305A096E6E00C946917A0E2B0E025
:10039000ECECF1E00C944D1769837A838B839C839A
:1003A0002D833E834F835887F9E0EF2EF12CEC0E1E
:1003B000FD1ECE010196B7010E9448068E010F5E18
:1003C0001F4FCE010596B8010E944806C701B8012B
:1003D000AE01475E5F4F0E9449000E947305A096E0
:1003E000E6E00C946917A0E2B0E0E9EFF1E00C94CC
:1003F000411769837A838B839C832D833E834F834C
:100400005887CE010196BE01675F7F4F0E94480664
:10041000CE010596BE016F5E7F4F0E94480699850A
:10042000923088F089898230C8F0943019F4823093
:1004300051F404C0843029F4923081F48DE194E0C9
:10044000C6C0923049F420E09A858A89981321E049
:100450002A87CE010996BBC0823049F420E09A85F4
:100460008A89981321E02A8BCE014196B0C02D8451
:100470003E844F8458886D887E888F88988CEE24BF
:10048000FF248701AA24BB24650140E050E060E01E
:1004900070E0E0E0F0E0C10181709070892BE9F03C
:1004A000E60CF71C081D191D9A01AB012A0D3B1D16
:1004B0004C1D5D1D80E090E0A0E0B0E0E614F70484
:1004C0000805190520F481E090E0A0E0B0E0BA0151
:1004D000A901480F591F6A1F7B1FAA0CBB1CCC1C0B
:1004E000DD1C97FE08C081E090E0A0E0B0E0A82A03
:1004F000B92ACA2ADB2A3196E032F10549F0660CA6
:10050000771C881C991C5694479437942794C3CF22
:10051000FA85EA892B893C898B859C85280F391FB0
:100520002E5F3F4F17C0CA0181709070892B61F018
:1005300016950795F794E79480E090E0A0E0B0E886
:10054000E82AF92A0A2B1B2B76956795579547952C
:100550002F5F3F4F77FDE7CF0CC0440F551F661F3D
:10056000771F17FD4160EE0CFF1C001F111F21506B
:100570003040403090E0590790E0690790E47907F7
:1005800060F32B8F3C8FDB01CA018F779070A070D6
:10059000B07080349105A105B10561F447FD0AC032
:1005A000E114F1040105110529F0405C5F4F6F4F24
:1005B0007F4F40781A8EFE1711F081E08A8F4D8FA1
:1005C0005E8F6F8F78A383E0898FCE0149960E945A
:1005D0007305A096E2E10C945D17A8E1B0E0E3EFAB
:1005E000F2E00C94491769837A838B839C832D8373
:1005F0003E834F835887B9E0EB2EF12CEC0EFD1EA5
:10060000CE010196B7010E9448068E010F5E1F4F72
:10061000CE010596B8010E9448062985223008F4CB
:100620007EC03989323010F4B8017CC08A859A893D
:1006300089278A87243011F0223031F4231709F0FA
:100640006EC06DE174E06EC0343039F41D861E86D4
:100650001F86188A1C861B8604C0323021F484E071
:100660008987B7015FC02B853C858B899C89281BB6
:10067000390B3C872B87ED84FE840F851889AD8864
:10068000BE88CF88D88CEA14FB040C051D0540F405
:10069000EE0CFF1C001F111F215030403C872B87A0
:1006A00020E030E040E050E080E090E0A0E0B0E406
:1006B00060E070E0EA14FB040C051D0540F0282BF7
:1006C000392B4A2B5B2BEA18FB080C091D09B69540
:1006D000A79597958795EE0CFF1C001F111F6F5F64
:1006E0007F4F6F31710531F7DA01C9018F77907053
:1006F000A070B07080349105A105B10561F427FDAB
:100700000AC0E114F1040105110529F0205C3F4FF6
:100710004F4F5F4F20782D873E874F87588BBE0104
:10072000675F7F4FCB010E9473056896EAE00C94E7
:100730006517A8E1B0E0EFE9F3E00C944D17698389
:100740007A838B839C832D833E834F83588789E0F4
:10075000E82EF12CEC0EFD1ECE010196B7010E9491
:1007600048068E010F5E1F4FCE010596B8010E940C
:1007700048068985823040F08989823028F0C70197
:10078000B8010E94C00601C08FEF6896E6E00C94A5
:100790006917A8E1B0E0EFECF3E00C944D17698322
:1007A0007A838B839C832D833E834F83588789E094
:1007B000E82EF12CEC0EFD1ECE010196B7010E9431
:1007C00048068E010F5E1F4FCE010596B8010E94AC
:1007D00048068985823040F08989823028F0C70137
:1007E000B8010E94C00601C081E06896E6E00C9462
:1007F0006917A8E0B0E0EFEFF3E00C944A179B0113
:10080000AC0183E08983DA01C9018827B7FD8395AC
:100810009927AA27BB27B82E211531054105510577
:1008200019F482E089833AC08823A9F0203080E05F
:10083000380780E0480780E8580729F460E070E056
:1008400080E09FEC30C0EE24FF248701E21AF30A17
:10085000040B150B02C079018A018EE1C82ED12C40
:10086000DC82CB82ED82FE820F831887C801B7013C
:100870000E94240501971816190684F4082E04C056
:10088000EE0CFF1C001F111F0A94D2F7ED82FE82AE
:100890000F831887C81AD90ADC82CB82BA82CE01AC
:1008A00001960E9473052896E9E00C946617ACE067
:1008B000B0E0EDE5F4E00C94511769837A838B8303
:1008C0009C83CE010196BE016B5F7F4F0E9448065C
:1008D0008D81823061F1823050F1843021F48E813B
:1008E000882351F12EC02F81388537FD20C06E81BD
:1008F0002F3131051CF06623F9F023C08EE190E022
:10090000821B930B29853A854B855C8504C05695DF
:100910004795379527958A95D2F76623B1F050957C
:100920004095309521953F4F4F4F5F4F0EC020E0CF
:1009300030E040E050E009C02FEF3FEF4FEF5FE7BE
:1009400004C020E030E040E050E8B901CA012C9634
:10095000E2E00C946D17A8E0B0E0E1EBF4E00C9459
:1009600049177B018C01611571058105910519F409
:1009700082E0898360C083E089838EE1C82ED12C18
:10098000DC82CB82ED82FE820F831887C801B7011B
:100990000E942405FC013197F7FF3BC02227332733
:1009A0002E1B3F0B57016801022E04C0D694C7943A
:1009B000B794A7940A94D2F740E050E060E070E06A
:1009C00081E090E0A0E0B0E004C0880F991FAA1F6A
:1009D000BB1F2A95D2F70197A109B1098E219F214A
:1009E000A023B1230097A105B10521F041E050E01B
:1009F00060E070E04A295B296C297D294D835E8384
:100A00006F8378878EE190E08E1B9F0B9C838B8396
:100A100012C0309781F00E2E04C0EE0CFF1C001F98
:100A2000111F0A94D2F7ED82FE820F831887CE1A27
:100A3000DF0ADC82CB821A82CE0101960E94730506
:100A40002896EAE00C946517EF92FF920F931F939C
:100A50007B018C0180E0E81680E0F80681E0080761
:100A600080E0180788F48FEFE816F10401051105FE
:100A700031F028F088E090E0A0E0B0E017C080E01E
:100A800090E0A0E0B0E012C080E0E81680E0F80658
:100A900080E0080781E0180728F088E190E0A0E0F6
:100AA000B0E004C080E190E0A0E0B0E020E230E0FF
:100AB00040E050E0281B390B4A0B5B0B04C0169535
:100AC0000795F794E7948A95D2F7F701EB5DFB4F12
:100AD0008081281B310941095109C9011F910F91DA
:100AE000FF90EF900895DF92EF92FF920F931F9384
:100AF000FC01E480F58006811781D18080818230FD
:100B000048F480E090E0A0E1B0E0E82AF92A0A2B5E
:100B10001B2BA5C0843009F49FC0823021F4EE2441
:100B2000FF24870105C0E114F1040105110519F442
:100B3000E0E0F0E096C0628173819FEF6238790750
:100B40000CF05BC022E83FEF261B370B2A31310542
:100B50002CF020E030E040E050E02AC0B801A701CE
:100B6000022E04C076956795579547950A94D2F75B
:100B700081E090E0A0E0B0E004C0880F991FAA1FB8
:100B8000BB1F2A95D2F70197A109B1098E219F2198
:100B9000A023B1230097A105B10521F081E090E0E9
:100BA000A0E0B0E09A01AB01282B392B4A2B5B2B3C
:100BB000DA01C9018F779070A070B0708034910510
:100BC000A105B10539F427FF09C0205C3F4F4F4F05
:100BD0005F4F04C0215C3F4F4F4F5F4FE0E0F0E0BC
:100BE0002030A0E03A07A0E04A07A0E45A0710F03E
:100BF000E1E0F0E079018A0127C06038710564F511
:100C0000FB01E158FF4FD801C7018F779070A070AA
:100C1000B07080349105A105B10539F4E7FE0DC02F
:100C200080E490E0A0E0B0E004C08FE390E0A0E0BA
:100C3000B0E0E80EF91E0A1F1B1F17FF05C016952E
:100C40000795F794E794319687E016950795F79402
:100C5000E7948A95D1F705C0EE24FF248701EFEFD2
:100C6000F0E06E2F679566276795902F9F77D79452
:100C7000DD24D7948E2F8695492F462B582F5D293A
:100C8000B701CA011F910F91FF90EF90DF90089577
:100C9000FC01DB01408151812281622F6F7770E07E
:100CA000221F2227221F9381892F880F822B282F12
:100CB00030E0991F9927991F11969C931197211540
:100CC0003105A9F5411551056105710511F482E061
:100CD00037C082E89FEF13969C938E9312979A01E8
:100CE000AB0167E0220F331F441F551F6A95D1F7F0
:100CF00083E08C930DC0220F331F441F551F1296A3
:100D00008D919C911397019713969C938E931297B4
:100D1000203080E0380780E0480780E4580758F327
:100D200014962D933D934D935C93179708952F3F01
:100D3000310579F4411551056105710519F484E017
:100D40008C93089564FF03C081E08C9312C01C92C1
:100D500010C02F57304013963C932E93129783E088
:100D60008C9387E0440F551F661F771F8A95D1F734
:100D7000706414964D935D936D937C9317970895CB
:100D80001F93DC01FB019C91923008F447C08081E5
:100D9000823008F443C0943051F411961C91843091
:100DA00099F58181682F70E0611B71093FC0843023
:100DB00021F0923031F48230B9F18181882389F1B8
:100DC0002DC011961C9111978230F1F08181181776
:100DD000D9F412962D913C911397828193818217B9
:100DE000930794F028173907BCF014968D919D91C4
:100DF0000D90BC91A02D2481358146815781281703
:100E000039074A075B0718F4112341F00AC082171B
:100E10009307A407B50740F4112319F061E070E0CF
:100E200005C06FEF7FEF02C060E070E0CB011F9163
:100E300008951ABA87E886B980E487B9089597B10A
:100E40008F70892B87B9369A349BFECF8AE18A95B9
:100E5000F1F794B185B1382F20E0290F311DC90178
:100E600008956130A1F4813051F0813028F0823052
:100E700049F0833061F409C08FEF8ABB08958FEF8A
:100E800087BB08958FEF84BB08958FEF81BB0895D2
:100E9000813049F0813028F0823039F0833041F4DC
:100EA00006C06BBB089568BB089565BB089562BB1F
:100EB0000895843008F075C0683008F072C0413081
:100EC000B1F5813099F0813030F08230D1F083304B
:100ED00009F067C021C02AB381E090E002C0880F0A
:100EE000991F6A95E2F7282B2ABB089527B381E062
:100EF00090E002C0880F991F6A95E2F7282B27BB64
:100F0000089524B381E090E002C0880F991F6A958C
:100F1000E2F7282B24BB089521B381E090E002C0C2
:100F2000880F991F6A95E2F7282B21BB0895442367
:100F3000C1F5813099F0813028F08230D9F08330CA
:100F400081F524C02AB381E090E002C0880F991F88
:100F50006A95E2F7809582238ABB089527B381E0E2
:100F600090E002C0880F991F6A95E2F7809582236E
:100F700087BB089524B381E090E002C0880F991FD9
:100F80006A95E2F78095822384BB089521B381E0BE
:100F900090E002C0880F991F6A95E2F7809582233E
:100FA00081BB0895843008F075C0683008F072C0C5
:100FB0004130B1F5813099F0813030F08230D1F09C
:100FC000833009F067C021C02BB381E090E002C0FC
:100FD000880F991F6A95E2F7282B2BBB089528B339
:100FE00081E090E002C0880F991F6A95E2F7282BF4
:100FF00028BB089525B381E090E002C0880F991FB7
:101000006A95E2F7282B25BB089522B381E090E092
:1010100002C0880F991F6A95E2F7282B22BB08951A
:101020004423C1F5813099F0813028F08230D9F025
:10103000833081F524C02BB381E090E002C0880F9B
:10104000991F6A95E2F7809582238BBB089528B398
:1010500081E090E002C0880F991F6A95E2F78095C1
:10106000822388BB089525B381E090E002C0880FF9
:10107000991F6A95E2F78095822385BB089522B374
:1010800081E090E002C0880F991F6A95E2F7809591
:10109000822382BB0895DF93CF930F92CDB7DEB743
:1010A0008430D0F46830C0F4813049F0813028F0C9
:1010B000823039F0833081F406C089B305C086B32D
:1010C00003C083B301C080B390E002C095958795BB
:1010D0006A95E2F78170898389810F90CF91DF91C2
:1010E000089583B984E886BF06B607FEFDCF08954C
:1010F00084EA86BF06B607FEFDCF089584E986BF61
:101100000895882311F484EC01C084E886BF06B6F4
:1011100007FEFDCF83B1089511B882E080B984E461
:1011200086BF089582B90895982F84EA86BF06B6CF
:1011300007FEFDCF93B984E886BF06B607FEFDCF54
:1011400084E886BF06B607FEFDCF43B184E986BFBB
:1011500084EF91E028EC30E0F9013197F1F7019745
:10116000D9F7842F0895982F84EA86BF06B607FE24
:10117000FDCF93B984E886BF06B607FEFDCF63B9FD
:1011800084E886BF06B607FEFDCF84E986BF0895D2
:10119000539A20B52F7720BD9C0140E050E084E0B9
:1011A000220F331F441F551F8A95D1F760E072E16B
:1011B0008AE790E00E9404172150304030BD29B9E1
:1011C00080B5866880BD80B5806B80BD80B5806845
:1011D00080BD0895549A20B52F7720BD9C0140E032
:1011E00050E094E0220F331F441F551F9A95D1F70A
:1011F00060E072E18AE790E00E94041721503040DD
:1012000030BD29B980B5866880BD80B5806B80BD52
:1012100080B5806880BD08955D9BFECF8CB95E9BD4
:10122000FECF08955F9BFECF8CB10895909133055A
:10123000943140F4E92FF0E0EB5CFA4F80839F5F3C
:101240009093330508952091330530E009C024318F
:1012500030F4E22FF0E0EB5CFA4F40832F5F3F5F0A
:10126000FC01E30FF11D4081442389F720933305EE
:1012700008951F931091340580913305181758F481
:10128000E12FF0E0EB5CFA4F80810E940C091F5FB8
:101290001093340504C010923305109234051F9149
:1012A000089590913205943140F4E92FF0E0E75B26
:1012B000FA4F80839F5F9093320508955F9BFECF26
:1012C0009CB180913205843140F4E82FF0E0E75B77
:1012D000FA4F90838F5F809332050895CF93DF9309
:1012E000EC0102C00E940C0989918823D9F7DF9193
:1012F000CF910895FC015F9BFECF8CB18083089550
:101300001ABA80EF84BBD89AD99ADA9ADB9AAC9A47
:10131000AD9AAE9AAF9A089580E197E2FC013197B9
:10132000F1F7AC98AD9AAE9AAF9A0197F1F7C899D8
:1013300002C087E30DC0C99902C084E309C0CA99FD
:1013400002C081E305C0CB9902C08AE201C080E0FF
:10135000AC9AAD98AE9AAF9AE0E1F7E23197F1F727
:10136000C89902C088E30AC0C99902C085E306C0D3
:10137000CA9902C082E302C0CB9B80E3AC9AAD9ACB
:10138000AE98AF9AE0E1F7E23197F1F7C89902C061
:1013900089E30AC0C99902C086E306C0CA9902C09F
:1013A00083E302C0CB9B83E2AC9AAD9AAE9AAF982E
:1013B000E0E1F7E23197F1F7C89902C08BE20895B6
:1013C000C99902C08DE20895CA9902C08AE20895BF
:1013D000CB9B8FE20895969820ED37E0F901319785
:1013E000F1F7979AF9013197F1F7982F92959F703D
:1013F00098BB9798F9013197F1F79698979AF90168
:101400003197F1F78F7088BB9798C9010197F1F771
:10141000089581B3806C81BB8FE087BB82E00E941E
:10142000EB0988E20E94EB0981E00E94EB098CE065
:101430000E94EB09089581E00E94EB090895969AB5
:1014400020ED37E0F9013197F1F7979AF9013197DB
:10145000F1F7982F92959F7098BB9798F901319763
:10146000F1F7969A979AF9013197F1F78F7088BB47
:101470009798C9010197F1F70895CF93DF93EC0195
:1014800002C00E941F0A89918823D9F7DF91CF916A
:101490000895813041F0813058F0823031F083304E
:1014A00031F060E005C0605C03C0605F01C0605B5C
:1014B000862F80680E94EB0908950F931F938A017D
:1014C0000E94490AC8010E943D0A1F910F91089588
:1014D0004AE050E00E9478170895EF92FF920F9330
:1014E0001F938C01E62EF42E0E9478088E2D0E9408
:1014F00071088F2D0E9471080E9478088E2D8160DE
:101500000E94710881E00E948108F80180830E9496
:101510007E08F80180811F910F91FF90EF90089550
:10152000FF920F931F93182F062FF42E0E94780816
:10153000812F0E947108802F0E9471088F2D0E94B8
:1015400071080E947E0884EF91E028EC30E0F901F8
:101550003197F1F70197D9F71F910F91FF900895F7
:10156000AA98AB988B988A98D798AB9893989298AA
:10157000DF9808958C9A8FB583608FBD8EB5886192
:101580008EBD8FB580628FBD8EB583608EBD8FEFAF
:101590008BBD8ABD8D9808958FB583688FBD8EB53C
:1015A0008A608EBD8D9A8C980895A0E0B0E0DC0131
:1015B00099278827BC01CD0124E630E040E050E0C7
:1015C0000E9426172150304040405040BB27A52F95
:1015D000942F832F89BD28BD08959BBD8ABD089592
:1015E000DE98DC98D698D4988FB58E7F8FBD8FB556
:1015F0008D7F8FBD8EB58D7F8EBD8EB5877F8EBD65
:101600008EB58F7E8EBD80E090E00E94D50A089551
:10161000D49ADC9A80E395E728EC30E0F901319721
:10162000F1F70197D9F7DC9808951F93182F84B329
:101630008C6084BB81B38C6081BBD79A88EE93E0C9
:1016400028EC30E0F9013197F1F70197D9F70E94C2
:101650001B0A133309F43DC0143330F4113359F02D
:10166000123309F07CC01EC0143309F449C015338D
:1016700009F075C05CC0AA9A88EE93E028EC30E0CF
:10168000F9013197F1F70197D9F76091300585E0BD
:10169000689FB00111246F5B7F4F80EA90E041E3C7
:1016A00050E05BC0AB9A88EE93E028EC30E0F901A3
:1016B0003197F1F70197D9F76091300585E0689F80
:1016C000B00111246E5B7F4F80EA90E042E350E06E
:1016D00044C0929A88EE93E028EC30E0F90131970B
:1016E000F1F70197D9F76091300585E0689FB00167
:1016F00011246D5B7F4F80EA90E043E350E02DC002
:10170000939A88EE93E028EC30E0F9013197F1F7F5
:101710000197D9F76091300585E0689FB0011124E9
:101720006C5B7F4F80EA90E044E350E016C0DF9AA4
:1017300088EE93E028EC30E0F9013197F1F701975A
:10174000D9F76091300585E0689FB00111246B5B8B
:101750007F4F80EA90E045E350E00E94900A1F919D
:1017600008951F93CF93DF93EC0110E008C06E5FE4
:101770007F4F80EA90E050E00E94900A1F5F612F47
:1017800070E0FE01E60FF71F4081442381F7DF91EF
:10179000CF911F9108950F931F938C01FC014081FD
:1017A00080EA90E066E070E050E00E94900AF80164
:1017B000418180EA90E067E070E050E00E94900A8A
:1017C000F801428180EA90E068E070E050E00E9419
:1017D000900AF801438180EA90E069E070E050E00F
:1017E0000E94900A1F910F9108958BE295E00E944C
:1017F000B10B87E295E00E94CB0B08951F93182F41
:101800008091B405813009F092C088EE93E028EC15
:1018100030E0F9013197F1F70197D9F70E941B0ADF
:10182000133309F43DC0143330F4113359F012333B
:1018300009F008C11EC0143309F449C0153309F07A
:1018400001C15CC080EA90E061E870E04FEF50E0D9
:101850000E94900AAA9888EE93E028EC30E0F90103
:101860003197F1F70197D9F780E060E040E650E06A
:101870005BC080EA90E062E870E04FEF50E00E94C9
:10188000900AAB9888EE93E028EC30E0F9013197AC
:10189000F1F70197D9F780E060E04AE650E044C0F4
:1018A00080EA90E063E870E04FEF50E00E94900A19
:1018B000929888EE93E028EC30E0F9013197F1F747
:1018C0000197D9F780E060E044E750E02DC080EA5E
:1018D00090E064E870E04FEF50E00E94900A939827
:1018E00088EE93E028EC30E0F9013197F1F70197A9
:1018F000D9F780E060E04DE750E016C080EA90E064
:1019000065E870E04FEF50E00E94900ADF9888EEA3
:1019100093E028EC30E0F9013197F1F70197D9F71E
:1019200080E060E047E850E00E945D0A8BC0809153
:10193000B505813009F086C088EE93E028EC30E0F0
:10194000F9013197F1F70197D9F70E941B0A133378
:10195000B9F1143330F4113359F0123309F072C075
:101960001BC0143309F440C0153309F06BC051C0DB
:10197000A298AA9888EE93E028EC30E0F90131971C
:10198000F1F70197D9F76091300585E0689FB001C4
:1019900011246F5B7F4F50C0A398AB9888EE93E003
:1019A00028EC30E0F9013197F1F70197D9F7609110
:1019B000300585E0689FB00111246E5B7F4F3CC00D
:1019C0008A98929888EE93E028EC30E0F9013197FC
:1019D000F1F70197D9F76091300585E0689FB00174
:1019E00011246D5B7F4F28C0939A8B98939888EE53
:1019F00093E028EC30E0F9013197F1F70197D9F73E
:101A00006091300585E0689FB00111246C5B7F4FC9
:101A100013C0D798DF9888EE93E028EC30E0F90106
:101A20003197F1F70197D9F76091300585E0689F0C
:101A3000B00111246B5B7F4F80EA90E04FEF50E0E4
:101A40000E94900A1F9108951F93182F84B38C60F1
:101A500084BB81B38C6081BBD79A88EE93E028EC7D
:101A600030E0F9013197F1F70197D9F70E941B0A8D
:101A7000133309F43DC0143330F4113359F01233E9
:101A800009F07CC01EC0143309F449C0153309F0B5
:101A900075C05CC080EA90E061E870E041E350E02E
:101AA0000E94900AAA9A88EE93E028EC30E0F901AF
:101AB0003197F1F70197D9F780E060E041E950E014
:101AC0005BC080EA90E062E870E042E350E00E9490
:101AD000900AAB9A88EE93E028EC30E0F901319758
:101AE000F1F70197D9F780E060E04AE950E044C09F
:101AF00080EA90E063E870E043E350E00E94900ADF
:101B0000929A88EE93E028EC30E0F9013197F1F7F2
:101B10000197D9F780E060E044E750E02DC080EA0B
:101B200090E064E870E044E350E00E94900A939AE9
:101B300088EE93E028EC30E0F9013197F1F7019756
:101B4000D9F780E060E043EA50E016C080EA90E018
:101B500065E870E045E350E00E94900ADF9A88EE65
:101B600093E028EC30E0F9013197F1F70197D9F7CC
:101B700080E060E04CEA50E00E945D0A1F91089509
:101B800080E060E045EB50E00E945D0A80E068E0A4
:101B90004CEB50E00E945D0A81E060E041EC50E0D7
:101BA0000E945D0A81E069E04AEC50E00E945D0A13
:101BB000089581ED90E00E946E0980EE90E00E9411
:101BC0006E0908958FEF87BB0E941B0A80E060E0DA
:101BD0004EEE50E00E945D0A8BEF90E00E946E098D
:101BE00088B38F7090912605892B88BB80E593EC94
:101BF00028EC30E0F9013197F1F70197D9F788B374
:101C00008F7090912505892B88BB08958AE191E01A
:101C10000E946E0987E291E00E946E0984E391E0E0
:101C20000E946E0984E491E00E946E0985E591E0CE
:101C30000E946E0986E691E00E946E0985E791E0B8
:101C40000E946E0989E891E00E946E090895CF9282
:101C5000DF92EF92FF920F931F93DF93CF930F9238
:101C6000CDB7DEB77C01198200E010E06E01089468
:101C7000C11CD11CC6010E947A0999819D3081F056
:101C80008091B1058F5F8093B105F701E00FF11FDF
:101C900090830F5F1F4F0430110511F01982EACFB6
:101CA0000F90CF91DF911F910F91FF90EF90DF90F8
:101CB000CF900895CF93DF930E94CC0A0E941B0A15
:101CC0008091B405813039F580E060E049E951E068
:101CD0000E945D0A83EA91E00E946E0980EC95E023
:101CE0000E947A098091C00523E3829FC0011124DC
:101CF000382F305920E040E757E108C0822F90E0AC
:101D00009BBD8ABDCA010197F1F72F5F2317B0F37E
:101D10001092C00547C08091B505813009F042C0DE
:101D200080E060E04CEB51E00E945D0A81E060E001
:101D30004CEC51E00E945D0AC8ECD0E00E948C0996
:101D40008093C00528EE33E0FE013197F1F7215072
:101D50003040D1F7882391F30E941B0A80E197E27B
:101D60000197F1F780E060E049E951E00E945D0AE7
:101D70008091C00523E3829FC0011124382F305980
:101D800020E040E757E108C0822F90E09BBD8ABD6C
:101D9000CA010197F1F72F5F2317B0F31092C00526
:101DA0000E941B0ADF91CF910895EF92FF920F934B
:101DB0001F93CF93DF93D69AD49A85E00E941F0792
:101DC000A0E0B0E0BC01CD010E94AB0420E030E017
:101DD00040EA50E40E94F3010E945704882777FDEF
:101DE0008095982F0E94F90320E030E040E85AE304
:101DF0000E94F3016093B8057093B9058093BA050A
:101E00009093BB052AE037ED43E25CE30E94ED02CC
:101E10006093BC057093BD058093BE059093BF058C
:101E2000C8ECD0E06091BC057091BD058091BE0505
:101E30009091BF0523C0DC9A84E690E00E94D50A09
:101E40006091BC057091BD058091BE059091BF0564
:101E500020E030E040E85FE30E9495016093BC051C
:101E60007093BD058093BE059093BF0528E833E1CC
:101E7000FE013197F1F721503040D1F70E9457040D
:101E8000DC01CB0161EC75E00E94680A81E060E052
:101E900045ED51E00E945D0A81E06DE041EC55E0C6
:101EA0000E945D0AE090BC05F090BD050091BE0562
:101EB0001091BF05C801B70120E030E048EA51E4C5
:101EC0000E94990318160CF4B6CFC801B70120E0A0
:101ED00030E048EA51E40E94C90388230CF0A2CF05
:101EE0000E94F00ADF91CF911F910F91FF90EF9028
:101EF00008958F929F92AF92BF92CF92DF92EF920E
:101F0000FF920F931F93DF93CF93CDB7DEB7289740
:101F10000FB6F894DEBF0FBECDBF1092B40580910E
:101F20006005833008F0D9C110925F050E941B0A3A
:101F300080E060E041EE51E00E945D0A8E010F5F9B
:101F40001F4F780188ECA82EB12C15E0812E912C22
:101F50008C0E9D1EDE2CD01A10925F050E948C09FB
:101F600080935F0528EB3BE0F5013197F1F72150B5
:101F70003040D1F7F701808381E06D2D0E94490A3E
:101F800080915F050E941F0A80915F05882331F3CD
:101F90000894E11CF11CE814F904E1F680E197E2F1
:101FA00028EC30E0F9013197F1F70197D9F70E9459
:101FB0001B0A10925F0588EB9BE028EC30E0F901EA
:101FC0003197F1F70197D9F780E060E04CEE51E0EE
:101FD0000E945D0A6E010894C11CD11C8601B8ECF8
:101FE0008B2E912CB02EBC1810925F050E948C098C
:101FF00080935F0528EB3BE0F4013197F1F7215026
:102000003040D1F7F801848381E06B2D0E94490AAA
:1020100080915F050E941F0A80915F05882331F33C
:102020000F5F1F4F0E151F05E9F680E197E228ECC0
:1020300030E0F9013197F1F70197D9F70E941B0AB7
:1020400010925F056091B2057091300510E05E015D
:102050000894A11CB11CA5E0CA2ED12CCC0EDD1E0B
:1020600004C1262F30E0D501A20FB31FFA01E20F01
:10207000F31FEF59FA4F9C918081981709F0F2C035
:10208000A62FAF5FF601E20FF31F2E0D3F1D9081CB
:10209000F9018481981709F0E5C06A2F862F810F16
:1020A0006430F9F6843009F0DEC06093B2057093B5
:1020B000300580E060E04CEF51E00E945D0A81E075
:1020C0008093B50580E197E228EC30E0F901319783
:1020D000F1F70197D9F7BCC00E941B0A0E94C00DFE
:1020E0000E948C0980935F0520ED37E0F80131975D
:1020F000F1F721503040D1F7882391F388E893E13C
:10210000F8013197F1F70197D9F70E941B0A8091E6
:102110005F05823309F48FC0833320F4813309F0E3
:1021200094C007C0833309F489C0843309F08DC09B
:1021300088C01092B4051092B2051BC050E04F5BEE
:102140005F4F809130058F9DC0011124480F591FAA
:1021500087EB95E060EA70E00E946D0A8091B70518
:102160000E94150B1092B7058091B2058F5F809386
:10217000B2054091B205453008F30E941B0A80E089
:1021800060E049E052E00E945D0A81E060E040E1E9
:1021900052E00E945D0A0E948C0980935F0528EB43
:1021A0003BE0F8013197F1F721503040D1F7882317
:1021B00091F31092B705813319F0823391F519C06C
:1021C0000E941B0A80E060E046E152E00E945D0A46
:1021D0000E948C098093B70528EB3BE0F80131970A
:1021E000F1F721503040D1F7882391F30E94150B6D
:1021F00018C00E941B0A80E060E046E152E00E94A5
:102200005D0A0E948C098093B70528EB3BE0F8013A
:102210003197F1F721503040D1F7882391F30E9494
:10222000FE0B1092B7051092B20510925F0581E087
:102230008093B50511C00E94D50E07C00E945A0EAA
:1022400004C00E94B00A1092B50510925F0504C048
:1022500008EC10E0F5E0FF2E8091B505882309F029
:102260003BCF3BC080E07F5F182F793078F460E08F
:10227000472F50E0E3E0440F551FEA95E1F731E6C0
:10228000E32E35E0F32EE40EF51E08CF6093B20581
:1022900070933005112309F588E893E128EC30E0CC
:1022A000F9013197F1F70197D9F70E941B0A80E0F5
:1022B00060E044E252E00E945D0A88E893E128EC85
:1022C00030E0F9013197F1F70197D9F78091600576
:1022D0008F5F809360051092300580916005833098
:1022E000F1F488E893E128EC30E0F9013197F1F757
:1022F0000197D9F70E941B0A80E060E043E352E0B7
:102300000E945D0A88E893E128EC30E0F9013197FA
:10231000F1F70197D9F70E941B0A109260052896E1
:102320000FB6F894DEBF0FBECDBFCF91DF911F91E6
:102330000F91FF90EF90DF90CF90BF90AF909F9064
:102340008F9008952F923F924F925F926F927F925B
:102350008F929F92AF92BF92CF92DF92EF92FF92B5
:102360000F931F93DF93CF9300D000D000D0CDB751
:10237000DEB78FE295E060EA70E040E050E00E9456
:102380006D0A80912F05803371F48EE392E00E94F4
:102390006E0940912F0580EA90E060E070E050E027
:1023A0000E94900A73C183E592E00E946E0980E367
:1023B00095E00E947A0950913005252F30E0409138
:1023C0002F05842F90E0281739074CF089E692E01A
:1023D0000E946E098CE692E00E946E0957C1451773
:1023E00008F454C1F901F097DF0103E0AA0FBB1F05
:1023F0000A95E1F7AF59BA4F8C91882309F446C189
:1024000011968C911197882309F440C113E0EE0FC7
:10241000FF1F1A95E1F7ED59FA4F8081882309F4DF
:1024200035C113968C91882309F047C02FC170E005
:10243000665F7F4F8091300590E0C097A3E0880FE2
:10244000991FAA95E1F7680F791F80EA90E04FEF96
:1024500050E00E94900A6091B20570E0625F7F4F89
:102460008091300590E0C097F3E0880F991FFA95AE
:10247000E1F7680F791F80EA90E04FEF50E00E948B
:10248000900AA0913005B0E0D0978091B205282F36
:1024900030E0E3E0AA0FBB1FEA95E1F7FD01E20F90
:1024A000F31FEF59FA4F1082AF59BA4FA20FB31F63
:1024B00014961C928F5F8093B2056091B2056430D0
:1024C00008F4B5CF1092B20515E015C070E06F5A50
:1024D000704080913005819FC0011124680F791FE1
:1024E00080EA90E04FEF50E00E94900A8091B205A0
:1024F0008F5F8093B2056091B205653038F310921A
:10250000B20589E692E00E946E0980E892E00E949E
:102510006E097090300575E0672E62E0262E312C32
:102520002C0E3D1E81C070E0D201A60FB71FAF591F
:10253000BA4FF501E60FF71FEF59FA4F40814C9360
:10254000D601A60FB71FF401E60FF71F848114967A
:102550008C93665F7F4F6E0D7F1D80EA90E050E0A8
:102560000E94900AE091B205F0E0BF01625F7F4FE8
:102570006E0D7F1DEC0DFD1D448180EA90E050E062
:102580000E94900A8091B2058F5F8093B20560919E
:10259000B205643040F21092B2051982F101862D25
:1025A00011928A95E9F77801EE0CFF1CEE0CFF1CE6
:1025B000E00EF11E87010A5A10402FC01982A801AF
:1025C000480F511DCE01019660EA70E00E946D0A2D
:1025D0006091B20570E0F101E60FF71F89818083F9
:1025E000600F711F80EA90E04FEF50E00E94900A68
:1025F000E091B205F0E0BF016F5A70406E0D7F1D93
:10260000E20DF31D408180EA90E050E00E94900AC4
:102610008091B2058F5F8093B2058091B2058530BD
:1026200068F21092B205739440912F05741610F55C
:10263000072D10E000531040780143E0EE0CFF1C22
:102640004A95E1F70F5F1F4F2701580133E0AA0CAD
:10265000BB1C3A95E1F7015D1F4F21E6C22E25E034
:10266000D22ECE0CDF1C91E6892E95E0992E8A0C95
:102670009B1C8DCF415040932F0580EA90E060E095
:1026800070E050E00E94900A1092B20526960FB6B4
:10269000F894DEBF0FBECDBFCF91DF911F910F9198
:1026A000FF90EF90DF90CF90BF90AF909F908F9072
:1026B0007F906F905F904F903F902F9008950F9371
:1026C0001F93DF93CF9300D000D000D0CDB7DEB7FB
:1026D0008FE295E060EA70E040E050E00E946D0A11
:1026E00080912F058A3359F48CE992E00E946E099B
:1026F0008BEB92E00E946E091092B405EAC08983C8
:102700001A828CEC92E00E946E09CE0101960E9422
:102710006E0989E692E00E946E098E010D5F1F4FDF
:10272000C8010E94270E89E692E00E946E0920E00F
:1027300030E040E0B901E3E0660F771FEA95E1F78A
:102740000EC0A42FB0E0FB01EA0FFB1FEF59FA4FB8
:10275000A00FB11F90818C91981751F44F5F4430B6
:1027600081F74093B2058FED92E00E946E09B1C0EF
:102770002F5F3F4F29303105E1F680912F05282F3B
:1027800030E0205330408E010D5F1F4F63E0220F79
:10279000331F6A95E1F70EC0842F90E0F901E80F2E
:1027A000F91FEF59FA4FD801A80FB91F8C918083F8
:1027B0001C924F5F443080F31092B20585EF92E097
:1027C0000E946E09CE0101960E946E0989E692E090
:1027D0000E946E09C8010E94270E89E692E00E94BD
:1027E0006E0980912F05282F30E04091B20553E00B
:1027F000220F331F5A95E1F72F513C4FBE016D5FF9
:102800007F4F0DC0842F90E0D901A80FB91FFB01A5
:10281000E80FF91F808114968C9310824F5F44302B
:1028200088F31092B20539C090E0E0912F05F0E0F6
:10283000F097BC01665F7F4F33E0EE0FFF1F3A95C4
:10284000E1F76E0F7F1FE80FF91FEF59FA4F408134
:1028500080EA90E050E00E94900A8091B20590E0FA
:10286000E0912F05F0E0F097BC01625F7F4F23E01D
:10287000EE0FFF1F2A95E1F76E0F7F1FEF59FA4FFA
:10288000E80FF91F448180EA90E050E00E94900A2E
:102890008091B2058F5F8093B2058091B20584303C
:1028A00018F21092B20584E193E00E946E0989E665
:1028B00092E00E946E0940912F054F5F40932F05D3
:1028C00080EA90E060E070E050E00E94900A109290
:1028D0002F0526960FB6F894DEBF0FBECDBFCF9161
:1028E000DF911F910F9108952F923F924F925F9227
:1028F0006F927F928F929F92AF92BF92CF92DF9210
:10290000EF92FF920F931F93DF93CF9300D0CDB739
:10291000DEB71C012B015A01EA821982F8ECCF2E96
:10292000D12C622E7724802E9924C5C08CE293E0AE
:102930000E946E0985ED95E00E94270E88EB9BE0D2
:10294000F6013197F1F70197D9F78BEB92E00E94EE
:102950006E0988EB9BE0F6013197F1F70197D9F703
:1029600089E393E00E946E098DED95E00E94270EA9
:1029700088EB9BE0F6013197F1F70197D9F78BEBE4
:1029800092E00E946E0988EB9BE0F6013197F1F727
:102990000197D9F7FF24EE240F2D10E0A801460D72
:1029A000571DCE0101966A8170E00E946D0A020DEA
:1029B000131D9981F8018081981709F4E394F39429
:1029C000F3E0FF1548F7FF2400E010E0A801480DF0
:1029D000591DCE0101966A8170E00E946D0AF201D4
:1029E000E00FF11F99818081981709F4F3940F5F2C
:1029F0001F4F0430110551F784E0E816A9F4F816CA
:102A000069F580E593E00E946E0981E0F50180831D
:102A100080E197E228EC30E0F9013197F1F7019776
:102A2000D9F710925D054CC0F4E0FF1671F58DE505
:102A300093E00E946E098CE693E00E946E09F50116
:102A4000108280915D058F5F80935D0588E893E13A
:102A5000F6013197F1F70197D9F72DC08DE893E092
:102A60000E946E098CE693E00E946E09F5011082C7
:102A700080915D058F5F80935D0588E893E1F601A5
:102A80003197F1F70197D9F716C08CE993E00E94CE
:102A90006E098CE693E00E946E09F5011082809128
:102AA0005D058F5F80935D0588E893E1F6013197BE
:102AB000F1F70197D9F780915D05833008F436CF9F
:102AC00080915D05833040F084EB93E00E946E09B5
:102AD0000E94080B10925D050F900F90CF91DF912F
:102AE0001F910F91FF90EF90DF90CF90BF90AF902C
:102AF0009F908F907F906F905F904F903F902F901E
:102B00000895EF920F931F930E94090A0E94800973
:102B100080E895E20E94EA0880E895E20E94C808F1
:102B20000E9419070E948C080E94090A0E94F50B56
:102B300010E31092B205109230050E94D90D8FE576
:102B400095E00E947A0989E692E00E946E098091E0
:102B50005F05813319F0823361F7E3C00E941B0ADD
:102B600080E060E04BEC53E00E945D0A85ED95E06B
:102B70006DED75E044EB55E022E006E030EAE32E2F
:102B80000E947414C8C00E94060E84ED95E00E9455
:102B90007A0989E692E00E946E098091D405873314
:102BA00029F410925F051093D405C3CF833391F1BC
:102BB000843330F4813369F0823309F0A6C027C032
:102BC000853309F49AC08533B0F1863309F09DC08E
:102BD00097C086EE95E060EA70E040E050E00E9429
:102BE0006D0A4091E60540932F0580EA90E060E091
:102BF00070E050E00E94900A8FE295E060EA70E099
:102C000040E050E00E946D0A0E945F1384C00E9461
:102C1000A21181C080E060E04BEC53E00E945D0AAD
:102C200081E060E046ED53E00E945D0A0E94E20D03
:102C30000E941B0A70C08091B405813009F048C021
:102C40001092B20514C050E040585F4F86EB95E0FB
:102C500060EA70E00E946D0A8091B6050E94240D22
:102C60001092B6058091B2058F5F8093B2054091B6
:102C7000B205463040F380EE93E00E946E0989EE83
:102C800093E00E946E098FE595E00E947A09809199
:102C90005F05813319F0823369F50DC081EF93E050
:102CA0000E946E098FE595E00E947A0980915F0588
:102CB0000E94240D1FC081EF93E00E946E098FE5F2
:102CC00095E00E947A0980915F050E94FE0B12C078
:102CD0008091B7050E94150B80E060E041EF53E062
:102CE0000E945D0A0E948C0980935F058823D1F3BE
:102CF0000E94150B10925F050EC00E94D50E0BC0EE
:102D00000E94CC0A0E945A0E06C01093D40581E09E
:102D100094E00E946E098091B405813009F433CFAC
:102D200008CF86EE95E060EA70E040E050E00E9457
:102D30006D0A4091E60540932F054093E50580EA32
:102D400090E060E070E050E00E94900A55C0109260
:102D5000B20548C050E0465F5F4F90E0C09703E087
:102D6000880F991F0A95E1F7480F591F83ED95E0E9
:102D700060EA70E00E946D0A8091E50590E0C097DE
:102D80004091B20550E0B3E0880F991FBA95E1F782
:102D9000FC01E40FF51FEF59FA4F2091D305208372
:102DA0001092D305425F5F4F480F591F83ED95E0A6
:102DB00060EA70E00E946D0A9091B205E091E5052D
:102DC000F0E0A3E0EE0FFF1FAA95E1F7EF51FC4FF3
:102DD000E90FF11D8091D30584831092D3059F5F85
:102DE0009093B2054091B2058091E505443008F416
:102DF000B1CF81508093E5058091E505803308F0DF
:102E0000A6CF0E94790F95CEA1E21A2EAA1BBB1B5A
:102E1000FD010DC0AA1FBB1FEE1FFF1FA217B307A6
:102E2000E407F50720F0A21BB30BE40BF50B661FBC
:102E3000771F881F991F1A9469F760957095809580
:102E400090959B01AC01BD01CF01089597FB092E20
:102E500005260ED057FD04D0D7DF0AD0001C38F469
:102E600050954095309521953F4F4F4F5F4F0895B6
:102E7000F6F790958095709561957F4F8F4F9F4F96
:102E800008952F923F924F925F926F927F928F920E
:102E90009F92AF92BF92CF92DF92EF92FF920F93E9
:102EA0001F93CF93DF93CDB7DEB7CA1BDB0B0FB6F3
:102EB000F894DEBF0FBECDBF09942A8839884888B0
:102EC0005F846E847D848C849B84AA84B984C88446
:102ED000DF80EE80FD800C811B81AA81B981CE0F3D
:102EE000D11D0FB6F894DEBF0FBECDBFED01089522
:102EF000FB019F01E8944230C4F04532B4F44A30FB
:102F000029F497FB1EF4909581959F4F642F7727A6
:102F10000E94A917805D8A330CF0895D8193CB01F3
:102F20000097A1F716F45DE251931082C9010C9449
:102F30009917DC01FC01672F71917723E1F7329734
:102F400004C07C916D9370836291AE17BF07C8F384
:102F50000895AA1BBB1B51E107C0AA1FBB1FA617E0
:102F6000B70710F0A61BB70B881F991F5A95A9F732
:0E2F700080959095BC01CD010895F894FFCF97
:102F7E006C65645F315F6F4646006C65645F325FFF
:102F8E004F4646006C65645F335F6F6E006C656420
:102F9E005F345F6F4646006C65645F355F6F464613
:102FAE00006C65645F315F6F6E006C65645F325FED
:102FBE006F6E006C65645F345F6F6E006C65645F8E
:102FCE00355F6F6E00312D6C65647300322D414399
:102FDE0000332D44696D6D657200342D686F6D651B
:102FEE0000312D61646D696E5F6D6F64650D0A0051
:102FFE00322D757365725F6D6F64650D0A00446FD7
:10300E006F72204F70656E696E6700446F6F72202D
:10301E004F70656E696E67202D576169742035207B
:10302E005365636F6E64730D0A002A2A2A2A2A2AB0
:10303E002A2A2A2A0D0A00312D41646420757365EF
:10304E00720D0A00322D52656D6F766520757365AF
:10305E00720D0A00332D446F6F7220436F6E7472BF
:10306E006F6C0D0A00342D4C616D7020436F6E74C1
:10307E00726F6C0D0A00352D414320436F6E7472D2
:10308E006F6C0D0A00362D44696D6D696E672043B5
:10309E006F6E74726F6C0D0A00372D5265747572F7
:1030AE006E20486F6D650D0A0044696D6D65722066
:1030BE004F6E00656E74657220696E74656E73690D
:1030CE0074792066726F6D20317E3500656E746581
:1030DE007220696E74656E736974790066726F6DB5
:1030EE0020317E350054656D706572617475726540
:1030FE0000656E7465725F6E616D6500656E7465F8
:10310E00725F70696E5F345F6E756D0057656C63CC
:10311E006F6D655F486F6D6500312D6F70656E0068
:10312E00322D6F666600656E746572206C65642064
:10313E00317E3500757365725F6E6F745F666F7585
:10314E006E640073797374656D5F6F6666004E6FA3
:10315E0020757365727320746F2052656D6F76657E
:10316E000D0A00456E74657220696E646578206F75
:10317E006620557365720D0A000D0A00656E746542
:10318E007220726967687420696E6465780D0A0032
:10319E00557365722052656D6F7665642053756345
:1031AE006365737366756C6C790D0A00546865728D
:1031BE0065206973204D6178204E756D62657220B1
:1031CE006F662075736572730D0A002D2D2D2D2DD2
:1031DE002D2D2D2D2D2D2D2D2D0D0A00656E746589
:1031EE00725F69645F666F725F75736572200055FA
:1031FE0073657220416C72656164792045786973DC
:10320E0074696E6700656E7465725F70696E5F6675
:10321E006F75725F64696769745F666F725F7573ED
:10322E006572200055736572206164646564205375
:10323E0075636365737366756C6C7900656E746522
:10324E00725F6E616D650D0A00656E7465725F70FA
:10325E00696E5F666F75725F64696769740D0A00E7
:10326E005375636365737366756C0D0A00496E76EC
:10327E00616C69645F4E616D650D0A00506C65612D
:10328E00736520456E7465722052696768742049B3
:10329E006E666F726D6174696F6E0D0A00496E769F
:1032AE00616C69645F506173730D0A00696E766CB0
:1032BE006169645F6E616D655F616E645F7061739D
:1032CE00730D0A00776169745F357365635F666FAE
:1032DE00725F62757A7A65720D0A0061646D696E4D
:1032EE005F6D6F646500646F6F725F6F70656E0007
:1032FE00312D6F70656E0D0A00322D6F66660D0AE8
:10330E0000656E746572206C656420317E350D0A21
:10331E0000506C6561736520456E7465722052694C
:10332E006768742043686F6963650D0A00000000CA
:10333E000000000000000102020303030304040462
:10334E000404040404050505050505050505050524
:10335E000505050505060606060606060606060604
:10336E0006060606060606060606060606060606EF
:10337E0006060606060707070707070707070707D4
:10338E0007070707070707070707070707070707BF
:10339E0007070707070707070707070707070707AF
:1033AE00070707070707070707070707070707079F
:1033BE000707070707080808080808080808080884
:1033CE00080808080808080808080808080808086F
:1033DE00080808080808080808080808080808085F
:1033EE00080808080808080808080808080808084F
:1033FE00080808080808080808080808080808083F
:10340E00080808080808080808080808080808082E
:10341E00080808080808080808080808080808081E
:10342E00080808080808080808080808080808080E
:10343E00080808080860303132333472616D793013
:02344E0030301C
:00000001FF
